{
  "contractName": "HelloWorld",
  "abi": [
    {
      "inputs": [
        {
          "internalType": "string",
          "name": "name",
          "type": "string"
        }
      ],
      "name": "sayHi",
      "outputs": [
        {
          "internalType": "string",
          "name": "",
          "type": "string"
        }
      ],
      "stateMutability": "pure",
      "type": "function",
      "constant": true
    }
  ],
  "bytecode": "0x608060405234801561001057600080fd5b50610236806100206000396000f3fe608060405234801561001057600080fd5b506004361061002b5760003560e01c8063af6adf8b14610030575b600080fd5b6100e96004803603602081101561004657600080fd5b810190808035906020019064010000000081111561006357600080fd5b82018360208201111561007557600080fd5b8035906020019184600183028401116401000000008311171561009757600080fd5b91908080601f016020809104026020016040519081016040528093929190818152602001838380828437600081840152601f19601f820116905080830192505050505050509192919290505050610164565b6040518080602001828103825283818151815260200191508051906020019080838360005b8381101561012957808201518184015260208101905061010e565b50505050905090810190601f1680156101565780820380516001836020036101000a031916815260200191505b509250505060405180910390f35b60608160405160200180807f486f6c612000000000000000000000000000000000000000000000000000000081525060050182805190602001908083835b602083106101c557805182526020820191506020810190506020830392506101a2565b6001836020036101000a038019825116818451168082178552505050505050905001915050604051602081830303815290604052905091905056fea264697066735822122032bab91773526ca0464734ef5ca0aad4addf82bdc1a4cad29bb2a16dd9e5263f64736f6c63430007000033",
  "immutableReferences": {},
  "source": "// SPDX-License-Identifier: GPL-3.0\npragma solidity ^0.7.0;\n\ncontract HelloWorld {\n    function sayHi(string memory name) public pure returns (string memory) {\n        return string(abi.encodePacked(\"Hola \", name));\n    }\n}\n",
  "sourcePath": "C:\\Users\\Usuario\\Desktop\\solidity-hello_world-main\\contracts\\HelloWorld.sol",
  "compiler": {
    "name": "solc",
    "version": "0.7.0+commit.9e61f92b.Emscripten.clang"
  },
  "schemaVersion": "3.4.3",
  "updatedAt": "2021-08-27T23:26:55.723Z",
  "networkType": "ethereum",
  "devdoc": {
    "kind": "dev",
    "methods": {},
    "version": 1
  },
  "userdoc": {
    "kind": "user",
    "methods": {},
    "version": 1
  }
}